:100000000C942A000C94EA020C9447000C944700CC
:100010000C9447000C9447000C9447000C94470044
:100020000C9447000C9447000C9499000C94C20067
:100030000C9447000C9447000C9447000C94470024
:100040000C9447000C9447000C9447000C94470014
:100050000C94470011241FBECFE5D8E0DEBFCDBF12
:1000600010E0A0E6B0E0EAE0FDE002C005900D92ED
:10007000A037B107D9F710E0A0E7B0E001C01D92AA
:10008000A637B107E1F70E94B3040C9483060C94E1
:10009000000083B7877F83BF83B78F7B83BF89B718
:1000A0008E7F89BF83B7816083BF83B78D7F83BF16
:1000B00083B7846083BF089583BF08958CBF08957C
:1000C0009C01009751F08091700090917100892BF4
:1000D00021F4309371002093700008959C010097E3
:1000E00051F08091720090917300892B21F430932C
:1000F000730020937200089588B7816088BF0895C7
:1001000013BE08951F93182F0E9449008DE3189F76
:10011000A001112408C008B600FEFDCF88B7816099
:1001200088BF2F5F3F4F24173507A8F313BE1F91D9
:1001300008951F920F920FB60F9211242F933F93A1
:100140004F935F936F937F938F939F93AF93BF93DF
:10015000EF93FF93E0917200F0917300309709F0F4
:100160000995FF91EF91BF91AF919F918F917F91F1
:100170006F915F914F913F912F910F900FBE0F9014
:100180001F9018951F920F920FB60F9211242F9364
:100190003F934F935F936F937F938F939F93AF930F
:1001A000BF93EF93FF93E0917000F091710030974F
:1001B00009F00995FF91EF91BF91AF919F918F91B8
:1001C0007F916F915F914F913F912F910F900FBE53
:1001D0000F901F901895982F862F81508E3F80F09A
:1001E000913049F0913028F0923039F0933041F459
:1001F00006C06ABB089567BB089564BB089561BBE0
:100200000895382F883008F078C0613029F16130C6
:1002100038F0623009F43CC0633009F06EC053C05E
:10022000413059F42AB381E090E002C0880F991F51
:100230003A95E2F7282B2ABB0895442309F05DC0C4
:100240002AB381E090E002C0880F991F3A95E2F747
:10025000809582238ABB0895413059F427B381E009
:1002600090E002C0880F991F3A95E2F7282B27BB30
:100270000895442309F041C027B381E090E002C013
:10028000880F991F3A95E2F78095822387BB0895DE
:10029000413059F424B381E090E002C0880F991FE7
:1002A0003A95E2F7282B24BB0895442331F524B373
:1002B00081E090E002C0880F991F3A95E2F780959F
:1002C000822384BB0895413059F421B381E090E04A
:1002D00002C0880F991F3A95E2F7282B21BB089599
:1002E000442359F421B381E090E002C0880F991FA4
:1002F0003A95E2F78095822381BB0895982F862F47
:1003000081508E3F80F0913049F0913028F092304A
:1003100039F0933041F406C06BBB089568BB089573
:1003200065BB089562BB0895382F883008F078C007
:10033000613029F1613038F0623009F43CC063303B
:1003400009F06EC053C0413059F42BB381E090E006
:1003500002C0880F991F3A95E2F7282B2BBB08950E
:10036000442309F05DC02BB381E090E002C0880F08
:10037000991F3A95E2F7809582238BBB089541300F
:1003800059F428B381E090E002C0880F991F3A9594
:10039000E2F7282B28BB0895442309F041C028B375
:1003A00081E090E002C0880F991F3A95E2F78095AE
:1003B000822388BB0895413059F425B381E090E051
:1003C00002C0880F991F3A95E2F7282B25BB0895A4
:1003D000442331F525B381E090E002C0880F991FD6
:1003E0003A95E2F78095822385BB0895413059F410
:1003F00022B381E090E002C0880F991F3A95E2F79E
:10040000282B22BB0895442359F422B381E090E0C5
:1004100002C0880F991F3A95E2F78095822382BB2C
:100420000895FB016115710591F0813049F081302B
:1004300028F0823039F0833051F407C089B303C00B
:1004400086B301C083B38083089580B38083089509
:10045000282FFA01883000F5613049F0613028F02A
:10046000623039F06330C1F40EC089B303C086B383
:1004700001C083B390E002C0959587952A95E2F775
:1004800081708083089580B390E002C09595879530
:100490002A95E2F7817080830895382F8830A0F57F
:1004A000613091F0613028F06230C9F0633061F55D
:1004B00021C02BB381E090E002C0880F991F3A95CC
:1004C000E2F728272BBB089528B381E090E002C013
:1004D000880F991F3A95E2F7282728BB089525B37E
:1004E00081E090E002C0880F991F3A95E2F7282733
:1004F00025BB089522B381E090E002C0880F991FC8
:100500003A95E2F7282722BB0895582F815084306E
:1005100008F050C0842F90E08F709070052E02C0BC
:10052000880F991F0A94E2F7482F6130B9F06130C3
:1005300030F0623011F1633009F03CC02DC08BB354
:100540002FE030E002C0220F331F5A95E2F72095CA
:1005500028232BBB8BB3482B4BBB089588B32FE0CC
:1005600030E002C0220F331F5A95E2F7209528236E
:1005700028BB88B3482B48BB089585B32FE030E0F3
:1005800002C0220F331F5A95E2F72095282325BB7E
:1005900085B3482B45BB089582B32FE030E002C0FD
:1005A000220F331F5A95E2F72095282322BB82B3EE
:1005B000482B42BB08958FB780688FBF08958FB7CF
:1005C0008F778FBF0895009721F0909375008093E7
:1005D000740008951F920F920FB60F9211242F935B
:1005E0003F934F935F936F937F938F939F93AF93BB
:1005F000BF93EF93FF93E0917400F09175003097F3
:1006000009F00995FF91EF91BF91AF919F918F9163
:100610007F916F915F914F913F912F910F900FBEFE
:100620000F901F90189585B78E7F85BF85B78D7FFA
:1006300085BF8BB780648BBF0895089508959F92FE
:10064000AF92BF92CF92DF92EF92FF920F931F93E0
:10065000DF93CF930F92CDB7DEB71982CC24CA9423
:10066000EE24FF245E010894A11CB11C9E2C8E2D4B
:1006700062E040E00E9494018701000F111F000F0B
:10068000111F005A1F4F84E0D82E8D2D62E0A50166
:100690000E9428028981882359F4F801C08005C08E
:1006A0008D2D62E0A5010E94280289818823C1F373
:1006B000D3940F5F1F4FF8E0DF1639F7892D62E002
:1006C00041E00E9494010894E11CF11C84E0E816CA
:1006D000F10461F68C2D0F90CF91DF911F910F9156
:1006E000FF90EF90DF90CF90BF90AF909F900895D4
:1006F00080E062E041E00E94010181E062E041E0CF
:100700000E94010182E062E041E00E94010183E079
:1007100062E041E00E94010184E062E040E00E946A
:10072000010185E062E040E00E94010186E062E0B4
:1007300040E00E94010187E062E040E00E94010188
:1007400084E062E041E00E94940185E062E041E0E3
:100750000E94940186E062E041E00E94940187E0FB
:1007600062E041E00E94940180E062E041E00E948A
:10077000940180E062E041E00E94940180E062E048
:1007800041E00E94940180E062E041E00E94940117
:100790000895EF92FF921F93182F82E061E040E0EE
:1007A0000E94940181E061E041E00E949401412FA8
:1007B00042954F7084E060E00E94850283E061E032
:1007C00041E00E94940180E4E82E8FE1F82EC701F9
:1007D0000197F1F783E061E040E00E94940184E03A
:1007E00060E0412F0E94850283E061E041E00E94C9
:1007F0009401C7010197F1F783E061E040E00E94B6
:1008000094011F91FF90EF900895EF92FF921F9334
:10081000182F82E061E040E00E94940181E061E0F5
:1008200040E00E949401412F42954F7084E060E0C7
:100830000E94850283E061E041E00E94940190E41F
:10084000E92E9FE1F92EC7010197F1F783E061E0FE
:1008500040E00E94940184E060E0412F0E94850204
:1008600083E061E041E00E949401C7010197F1F744
:1008700083E061E040E00E9494011F91FF90EF90BF
:100880000895823068F4603158F4882329F4862F63
:1008900080580E9405040895862F80540E94050404
:1008A0000895EF92FF920F931F938CE291E020E95D
:1008B00031E0F9013197F1F70197D9F784E060E071
:1008C00041E00E94010185E060E041E00E940101F9
:1008D00086E060E041E00E94010187E060E041E0E5
:1008E0000E94010181E061E041E00E94010182E09B
:1008F00061E041E00E94010183E061E041E00E948B
:10090000010184E060E042E00E94850283E061E052
:1009100041E00E94940120E4E22E2FE1F22EC70173
:100920000197F1F783E061E040E00E94940188E2E2
:100930000E94050400EA1FE0C8010197F1F78FE06B
:100940000E940504C8010197F1F781E00E940504A7
:10095000C7010197F1F786E00E9405041F910F91EE
:10096000FF90EF90089583E063E041E00E94010171
:1009700087E062E041E00E94010182E062E041E044
:100980000E94010183E063E041E00E9494018AE05B
:100990000E94820083E063E040E00E9494018AE0CC
:1009A0000E948200EFCF80E060E041E00E9494016D
:1009B00085E00E94820080E060E040E00E949401B7
:1009C00085E00E94820081E060E041E00E949401A5
:1009D00081E00E94820081E060E040E00E9494019A
:1009E00081E00E94820081E060E041E00E94940189
:1009F00081E00E94820081E060E040E00E9494017A
:100A000081E00E94820081E060E041E00E94940168
:100A100080E00E94820081E060E040E00E9494015A
:100A200080E00E94820082E060E041E00E94940148
:100A300085E00E94820082E060E040E00E94940134
:100A400085E00E94820081E060E041E00E94940124
:100A500081E00E94820081E060E040E00E94940119
:100A600081E00E94820081E060E041E00E94940108
:100A700081E00E94820081E060E040E00E949401F9
:100A800081E00E94820081E060E041E00E949401E8
:100A900080E00E94820081E060E040E00E949401DA
:100AA00080E00E9482000895DF93CF9300D00F92E0
:100AB000CDB7DEB782E060E0AE014F5F5F4F0E94CE
:100AC000280285E00E94820080E060E0AE014E5F77
:100AD0005F4F0E94280281E060E0AE014D5F5F4FF2
:100AE0000E94280285E00E94820089818130C9F439
:100AF00082E060E041E00E94940180E061E041E03A
:100B00000E94940185E00E94820082E060E040E063
:100B10000E94940180E061E040E00E94940181E045
:100B200075C08A81813031F08B81813019F0882342
:100B300009F06EC082E061E041E00E94940185E02E
:100B40000E94820082E061E040E00E94940185E022
:100B50000E94820081E060E041E00E94940181E017
:100B600061E041E00E94940181E00E94820081E006
:100B700060E040E00E94940181E061E040E00E947A
:100B8000940181E00E94820081E060E041E00E94E7
:100B9000940181E061E041E00E94940181E00E94C3
:100BA000820081E060E040E00E94940181E061E029
:100BB00040E00E94940181E00E94820081E060E0B8
:100BC00041E00E94940181E061E041E00E949401D3
:100BD00080E00E94820081E060E040E00E94940199
:100BE00081E061E040E00E94940180E00E94820088
:100BF00082E060E041E00E94940185E00E94820072
:100C000080E061E041E00E94940185E00E94820062
:100C100082E060E040E00E94940181E060E041E019
:100C20000E94940181E061E041E00E94940181E032
:100C30000E94820081E060E040E00E94940181E037
:100C400061E040E00E94940181E00E94820081E026
:100C500060E041E00E94940181E061E041E00E9497
:100C6000940181E00E94820081E060E040E00E9407
:100C7000940181E061E040E00E94940181E00E94E3
:100C8000820081E060E041E00E94940181E061E047
:100C900041E00E94940180E00E94820081E060E0D7
:100CA00040E00E94940181E061E040E00E949401F4
:100CB00080E00E94820080E061E040E00E949401B8
:100CC00085E00E94820080E060E041E00E949401A3
:100CD00085E00E94820082E061E041E00E94940190
:100CE00085E00E94820080E060E040E00E94940184
:100CF00082E061E040E00E9494010F900F900F901D
:0A0D0000CF91DF910895F894FFCF22
:100D0A003134372A32353830333639234142434475
:00000001FF
